:100000000C9462000C948A000C948A000C948A0070
:100010000C948A000C948A000C948A000C948A0038
:100020000C948A000C948A000C948A000C948A0028
:100030000C948A000C948A000C948A000C948A0018
:100040000C94DE040C948A000C948A000C948A00B0
:100050000C948A000C948A000C948A000C948A00F8
:100060000C948A000C948A000000000024002700F1
:100070002A0000000000250028002B0000000000DE
:1000800023002600290004040404040404040202DA
:100090000202020203030303030301020408102007
:1000A0004080010204081020010204081020000012
:1000B0000008000201000003040700000000000027
:1000C00000008D0611241FBECFEFD8E0DEBFCDBFEC
:1000D00021E0AAE3B1E001C01D92A636B207E1F724
:1000E00011E0A0E0B1E0E2E2F2E102C005900D9281
:1000F000AA33B107D9F710E0C2E6D0E004C02197D7
:10010000FE010E941707C136D107C9F70E942805D2
:100110000C940F090C940000AF92BF92CF92DF9223
:10012000EF92FF920F931F93CF93DF936C017B01AC
:100130008B01040F151FEB015E01AE18BF08C0173D
:10014000D10759F06991D601ED91FC910190F081B0
:10015000E02DC6010995892B79F7C501DF91CF9173
:100160001F910F91FF90EF90DF90CF90BF90AF90D5
:100170000895FC0144815581608171818AE491E098
:100180000C948C00833081F028F4813099F0823017
:10019000A9F008958730A9F08830C9F08430B1F40F
:1001A000809180008F7D03C0809180008F77809345
:1001B0008000089584B58F7784BD089584B58F7DC0
:1001C000FBCF8091B0008F778093B000089580912D
:1001D000B0008F7DF9CFCF93DF93282F30E0F90166
:1001E000E255FF4F8491F901E656FF4FD491F90192
:1001F000EA57FF4FC491CC23A1F081110E94C200A5
:10020000EC2FF0E0EE0FFF1FE458FF4FA591B491E3
:10021000EC91ED2381E090E009F480E0DF91CF9153
:10022000089580E090E0FACF1F93CF93DF93282FBB
:1002300030E0F901E255FF4F8491F901E656FF4F96
:10024000D491F901EA57FF4FC491CC23A9F0162F9E
:1002500081110E94C200EC2FF0E0EE0FFF1FEE585C
:10026000FF4FA591B4918FB7F894EC91111108C08C
:10027000D095DE23DC938FBFDF91CF911F9108953E
:10028000DE2BF8CFCF93DF9390E0FC01E656FF4FD3
:1002900024918A579F4FFC0184918823D1F090E0EC
:1002A000880F991FFC01E859FF4FA591B491FC01FB
:1002B000EE58FF4FC591D49161110EC09FB7F894CD
:1002C0008C91E22FE0958E238C932881E223E883A2
:1002D0009FBFDF91CF9108958FB7F894EC91E22BF7
:1002E000EC938FBFF6CF3FB7F89480913F01909188
:1002F0004001A0914101B091420126B5A89B05C0E3
:100300002F3F19F00196A11DB11D3FBFBA2FA92F94
:10031000982F8827BC01CD01620F711D811D911D91
:1003200042E0660F771F881F991F4A95D1F70895FD
:100330008F929F92AF92BF92CF92DF92EF92FF92F5
:100340000E9473014B015C018CE2C82EDD24D39422
:10035000E12CF12C0E947301681979098A099B0923
:10036000683E734081059105A8F321E0C21AD108C7
:10037000E108F10888EE880E83E0981EA11CB11CEC
:10038000C114D104E104F10429F7FF90EF90DF904C
:10039000CF90BF90AF909F908F900895089590E078
:1003A00080E00895FC0101900020E9F73197AF014A
:1003B000481B590BBC018AE491E00C948C00FC01B1
:1003C00080819181009711F00C94B9070895CF9323
:1003D000DF93EC0160E08E810E94140161E08E8168
:1003E0000E94140160E08E810E9414018BE891E06C
:1003F0000197F1F7DF91CF910895CF92DF92EF92BD
:10040000FF920F931F93CF93DF936C017C0187E0E2
:10041000E80EF11CD0E0C0E0062F10E0B8010C2E71
:1004200002C0759567950A94E2F76170F7018191B2
:100430007F010E9414012196C430D10579F7C601CD
:10044000DF91CF911F910F91FF90EF90DF90CF90B0
:100450000C94E701CF92DF92EF92FF920F931F93DC
:10046000CF93DF93EC01F62E642F8C810E94140150
:100470008D818F3F19F060E00E9414010F2D10E074
:100480008F8584FF25C06E0187E0C80ED11CF12C3A
:10049000E12CB8010E2C02C0759567950A94E2F71D
:1004A0006170F60181916F010E941401FFEFEF1A54
:1004B000FF0A88E0E816F10461F7CE01DF91CF91E1
:1004C0001F910F91FF90EF90DF90CF900C94E70178
:1004D000B80184E0759567958A95E1F7CE010E9491
:1004E000FD016F2DCE01DF91CF911F910F91FF90F4
:1004F000EF90DF90CF900C94FD0140E0682F8AE4EC
:1005000091E00C942A0281E00E947D028BE39FE13E
:100510000197F1F70895CF93DF93823029F49091FA
:10052000590198609093590180935D0110925E018A
:1005300080E480935F0180E18093600180E5809397
:10054000610161E080914E010E94420180914F0162
:100550008F3F19F061E00E94420161E080915001FB
:100560000E944201CAE4D1E09E012A5431408091A8
:10057000590184FD0BC084E090E0219628173907CB
:1005800044F461E08E810E944201EECF88E090E069
:10059000F4CF8BE39DE00197F1F760E080914E018D
:1005A0000E94140160E0809150010E94140180912A
:1005B0004F018F3F19F060E00E94140180915901B2
:1005C00084FD34C063E08AE491E00E94FD01CBE445
:1005D000D6E4CE010197F1F763E08AE491E00E944E
:1005E000FD012197F1F763E08AE491E00E94FD01AB
:1005F00083E592E00197F1F762E08AE491E00E94DE
:10060000FD018091590180620E947D0284E0809307
:100610005A018CE00E947D020E94830282E0809356
:100620005B0186E0DF91CF910C947D0280620E9495
:100630007D028BE496E40197F1F780915901806285
:100640000E947D0283E592E00197F1F780915901C4
:1006500080620E947D02D5CF90915D01891710F0D4
:100660008FEF890FE82FF0E0E65BFE4F848980680A
:100670000C947D0241E00E942A0281E090E00895FE
:100680000F931F93CF93DF93EC018881998100979B
:1006900059F02A813B812617370730F081E0DF913E
:1006A000CF911F910F9108958B016F5F7F4F0E9433
:1006B0004208009759F0998388831B830A832C8111
:1006C0003D81232B59F7FC011082E8CF80E0E7CF72
:1006D000EF92FF920F931F93CF93DF93EC01FB01F7
:1006E000E080F180E114F10411F10481158101151C
:1006F0001105A9F08C819D81080F191FB801CE0149
:100700000E944003882399F0288139818C819D8142
:10071000B701820F931F0E9408091D830C83CE012D
:10072000DF91CF911F910F91FF90EF9008958881F5
:100730009981009711F00E94B907198218821D82D1
:100740001C821B821A82EBCFEF92FF920F931F93B2
:10075000CF93DF93EC017B018A01BA010E94400331
:1007600028813981811114C02115310519F0C90181
:100770000E94B907198218821D821C821B821A826C
:10078000CE01DF91CF911F910F91FF90EF900895CF
:100790001D830C83B701C9010E940809F1CFEF92B4
:1007A000FF920F931F93CF93DF93CDB7DEB762977E
:1007B0000FB6F894DEBF0FBECDBF8C01CB01F801A0
:1007C0001182108213821282158214824AE09E01E5
:1007D0002F5F3F4F7901B9010E94AB06F7010190ED
:1007E0000020E9F73197AF014E195F09B701C80141
:1007F0000E94A40362960FB6F894DEBF0FBECDBF71
:10080000DF91CF911F910F91FF90EF900895FC0120
:10081000118210821382128215821482FB010190D0
:100820000020E9F73197AF01461B570B0C94A40346
:100830000F931F93CF93DF93CDB7DEB768970FB6B3
:10084000F894DEBF0FBECDBF009148011091490161
:10085000813009F060C061E088E00E9414010E94CC
:10086000830280E00E942C0362E171E0CE01439696
:100870000E940704B801CE010D960E94CF0364E1E7
:1008800071E0CE0101960E94070418861F821A8625
:1008900019861C861B8669817A816115710531F084
:1008A0004D815E81CE0107960E94A403BE01635F65
:1008B0007F4FCE0107960E946803BE016D5E7F4F99
:1008C0000E9468030E94B900CE0107960E94DF01D2
:1008D000CE0101960E94DF01CE010D960E94DF013C
:1008E000CE0143960E94DF0181E00E942C0382E248
:1008F00091E00E94D20181E0809347010E9498011B
:1009000068960FB6F894DEBF0FBECDBFDF91CF91D2
:100910001F910F91089560E088E00E9414010E94E9
:10092000830280E00E942C0362E171E0CE014396D5
:100930000E940704B801CE010D960E94CF0364E126
:1009400071E0CE0101960E94070418861F821A8664
:1009500019861C861B8669817A816115710531F0C3
:100960004D815E81CE0107960E94A403BE01635FA4
:100970007F4FCE0107960E946803BE016D5E7F4FD8
:100980000E9468030E94B900CE0107960E94DF0111
:10099000CE0101960E94DF01CE010D960E94DF017B
:1009A000CE0143960E94DF0181E00E942C038DE27C
:1009B00091E00E94D20110924701A0CF1F920F92A6
:1009C0000FB60F9211242F933F938F939F93AF9362
:1009D000BF9380913B0190913C01A0913D01B0916A
:1009E0003E0130913A0123E0230F2D3758F501964F
:1009F000A11DB11D20933A0180933B0190933C01CE
:100A0000A0933D01B0933E0180913F019091400140
:100A1000A0914101B09142010196A11DB11D8093A9
:100A20003F0190934001A0934101B0934201BF91D7
:100A3000AF919F918F913F912F910F900FBE0F908B
:100A40001F90189526E8230F0296A11DB11DD2CF45
:100A5000CF93DF93CDB7DEB768970FB6F894DEBFBC
:100A60000FBECDBF789484B5826084BD84B58160AB
:100A700084BD85B5826085BD85B5816085BD809169
:100A80006E00816080936E001092810080918100E1
:100A900082608093810080918100816080938100D9
:100AA000809180008160809380008091B10084609B
:100AB0008093B1008091B00081608093B0008091FC
:100AC0007A00846080937A0080917A0082608093BB
:100AD0007A0080917A00816080937A0080917A0018
:100AE000806880937A001092C10082E00E948B029D
:100AF00060E080E00E94420160E081E00E944201EB
:100B000060E089E00E94420160E08AE00E944201C8
:100B100060E08BE00E94420160E08CE00E944201B4
:100B200060E08DE00E94420161E088E00E944201A5
:100B300000E510E03CE3A32EB12C44E6842E912C7A
:100B400088E2E82EF12C94E1C92ED12C20E0622E0F
:100B500020E0722E89E00E94EB00282E809346014F
:100B60008AE00E94EB00382E809345018BE00E94C2
:100B7000EB00482E809344018CE00E94EB00582E3D
:100B8000809343018DE00E94EB0021101DC03110C5
:100B90000AC0411008C0511006C0811104C0109253
:100BA00049011092480180E00E94EB00813099F5E4
:100BB0000E94EB00813069F50E94180461147104F1
:100BC00049F20E940000BCCF91E02912ECCF311015
:100BD0008EC04110E8CF5110E6CF8111E4CFD09202
:100BE0004901C0924801DFCF91E04912DCCF552086
:100BF00049F05912D8CF811188C010934901009350
:100C00004801D1CF8111CFCFB0924901A0924801C4
:100C1000CACF80E0D1CF80914801909149018431C1
:100C200091050CF059C081E00E9418040E948302D3
:100C300080E00E942C0362E171E0CE0101960E94E7
:100C400007046091480170914901CE0107960E9406
:100C5000CF0364E171E0CE0143960E9407041E8633
:100C60001D86188A1F861A8A198A6B897C896115E4
:100C7000710531F04F89588DCE010D960E94A40365
:100C8000BE01695F7F4FCE010D960E946803BE01D1
:100C90006F5F7F4F0E9468030E94B900CE010D96DE
:100CA0000E94DF01CE0143960E94DF01CE0107962C
:100CB0000E94DF01CE0101960E94DF0181E00E94C7
:100CC0002C0380914701813069F482E291E00E9417
:100CD000D2010E94980172CF8436910509F0A6CF07
:100CE00080E0A2CF8111F5CF8DE291E0F0CF91E0CD
:100CF000391259CF411078CF511055CF811153CFB0
:100D0000F0924901E09248014ECF813009F04BCF7B
:100D1000909249018092480146CFEAE4F1E01382C3
:100D200012828AE091E09183808387E084838FEF51
:100D3000858386E0868385E0878384E0808783E0FF
:100D4000818782E082871386148615861686178629
:100D500081E00C948B02BB274A3031F4992322F4B2
:100D6000BDE2909581959F4F0C94B706BB27FB0180
:100D70005527AA27880F991FAA1FA41710F0A41B94
:100D800083955051B9F7A05DAA3308F0A95DA193EE
:100D9000009779F7B111B1931192CB010C94D00661
:100DA000DC01FC01672F71917723E1F7329704C0D2
:100DB0007C916D9370836291AE17BF07C8F308955D
:100DC0002F923F924F925F926F927F928F929F925B
:100DD000AF92BF92CF92DF92EF92FF920F931F9349
:100DE000CF93DF93CDB7DEB7CA1BDB0B0FB6F894FA
:100DF000DEBF0FBECDBF09942A88398848885F843A
:100E00006E847D848C849B84AA84B984C884DF80AA
:100E1000EE80FD800C811B81AA81B981CE0FD11D8E
:100E20000FB6F894DEBF0FBECDBFED010895EE0FF3
:100E3000FF1F0590F491E02D09940F931F93CF931A
:100E4000DF938230910510F482E090E0E09164013C
:100E5000F091650130E020E0B0E0A0E0309799F437
:100E60002115310509F44AC0281B390B24303105FE
:100E7000D8F58A819B816115710589F1FB01938306
:100E80008283FE0111C04081518102811381481784
:100E90005907E0F04817590799F4109761F0129636
:100EA0000C93129713961C933296CF01DF91CF913A
:100EB0001F910F9108950093640110936501F4CF81
:100EC0002115310551F04217530738F0A901DB0114
:100ED0009A01BD01DF01F801C1CFEF01F9CF909375
:100EE000650180936401CDCFFE01E20FF31F819372
:100EF00091932250310939832883D7CF2091620101
:100F000030916301232B41F42091020130910301C0
:100F1000309363012093620120910001309101011F
:100F20002115310541F42DB73EB740910401509190
:100F30000501241B350BE0916201F0916301E2177A
:100F4000F307A0F42E1B3F0B2817390778F0AC01EC
:100F50004E5F5F4F2417350748F04E0F5F1F5093C9
:100F6000630140936201819391939FCFF0E0E0E0B1
:100F70009CCFCF93DF930097E9F0FC013297138267
:100F80001282A0916401B0916501ED0130E020E092
:100F90001097A1F420813181820F931F209162016B
:100FA000309163012817390709F061C0F09363019C
:100FB000E0936201DF91CF910895EA01CE17DF0738
:100FC000E8F54A815B819E0141155105B1F7E901C0
:100FD000FB83EA8349915991C40FD51FEC17FD0794
:100FE00061F4808191810296840F951FE9019983B4
:100FF0008883828193819B838A83F0E0E0E012966C
:101000008D919C9113970097B9F52D913C91119773
:10101000CD010296820F931F2091620130916301EE
:101020002817390739F6309751F51092650110925B
:101030006401B0936301A0936201BCCFD383C283E8
:1010400040815181840F951FC817D90761F44E5F05
:101050005F4F88819981480F591F518340838A814E
:101060009B81938382832115310509F0B0CFF093E2
:101070006501E09364019ECFFD01DC01C0CF1382C6
:101080001282D7CFB0E0A0E0E8E4F8E00C94E206EA
:101090008C01009751F4CB010E941D078C01C801FF
:1010A000CDB7DEB7E0E10C94FE06FC01E60FF71FBA
:1010B0009C0122503109E217F30708F49DC0D901C1
:1010C000CD91DC911197C617D70798F0C530D1059F
:1010D00030F3CE0104978617970708F3C61BD70B8A
:1010E0002297C193D1936D937C93CF010E94B9074E
:1010F000D6CF5B01AC1ABD0A4C018C0E9D1EA0918F
:101100006401B0916501512C412CF12CE12C109718
:1011100031F580916201909163018815990509F07C
:101120005CC04616570608F058C0809100019091A7
:101130000101009741F48DB79EB740910401509191
:101140000501841B950BE817F90708F055C0F093CB
:101150006301E0936201F90171836083A0CF8D91F7
:101160009C91119712966C90129713967C901397FE
:10117000A815B90559F56C0142E0C40ED11CCA147A
:10118000DB0420F1AC014A195B09DA0112961597CC
:1011900080F06282738251834083D9016D937C9386
:1011A000E114F10471F0D7011396FC93EE931297BA
:1011B00076CF22968C0F9D1FF90191838083F301D6
:1011C000EFCFF0936501E093640169CF48165906AB
:1011D00008F42C017D01D3019ACFCB010E941D0799
:1011E0007C01009749F0AE01B8010E94FF08C801D8
:1011F0000E94B907870153CF10E000E050CFFB01F8
:10120000DC0102C001900D9241505040D8F7089582
:10121000FB01DC0101900D920020E1F70895F894A4
:02122000FFCFFE
:10122200000066018000000000003A038C00CF013C
:10123200CE0125005741544552204C4556454C3A63
:10124200200050554D50203A204F4E210050554D10
:0A12520050203A204F4646210000CC
:00000001FF
